:1001BC0001020304050607080102030405060708EB
:10015C007BFF7A0179BCC003C002C0017B017A002D
:10016C007900A801AC02AD03D001D002D0037E000F
:10017C007F081200D3900002E0FF900001E0FEEE39
:10018C002FFF900003E0FEEF2EFF900004E0FEEF47
:10019C002EFF900005E0FEEF2EFF900006E0FEEF34
:0F01AC002EFF900000E0FEEF2EFF900007EFF017
:0101BB002221
:1000F9007BFF7A0179C4C003C002C0017B017A0089
:100109007908A801AC02AD03D001D002D0037E006A
:100119007F081200D312015C90000AE0FF900009E9
:10012900E0FEEE2FFF90000BE0FEEF2EFF90000C9B
:10013900E0FEEF2EFF90000DE0FEEF2EFF90000E87
:10014900E0FEEF2EFF900008E0FEEF2EFF90000F7B
:02015900EFF0C5
:01015B002281
:0601D8001200F980FB2279
:030000000201CC2E
:0C01CC00787FE4F6D8FD7581070201D8A9
:10000300E709F608DFFA8046E709F208DFFA803EDF
:1000130088828C83E709F0A3DFFA8032E309F608CC
:10002300DFFA8078E309F208DFFA807088828C8334
:10003300E309F0A3DFFA806489828A83E0A3F608E8
:10004300DFFA805889828A83E0A3F208DFFA804CC2
:1000530080D280FA80C680D4806980F28033801099
:1000630080A680EA809A80A880DA80E280CA803302
:1000730089828A83ECFAE493A3C8C582C8CCC5837A
:10008300CCF0A3C8C582C8CCC583CCDFE9DEE7804A
:100093000D89828A83E493A3F608DFF9ECFAA9F0C9
:1000A300EDFB2289828A83ECFAE0A3C8C582C8CC1F
:1000B300C583CCF0A3C8C582C8CCC583CCDFEADE38
:1000C300E880DB89828A83E493A3F208DFF980CC9A
:1000D30088F0EF60010E4E60C388F0ED2402B40493
:1000E3000050B9F582EB2402B4040050AF2323453A
:0600F3008223900053730C
:00000001FF
